{
  "abi": [
    {
      "inputs": [
        {
          "internalType": "address",
          "name": "_owner",
          "type": "address"
        },
        {
          "internalType": "contract Authority",
          "name": "_authority",
          "type": "address"
        }
      ],
      "stateMutability": "nonpayable",
      "type": "constructor"
    },
    {
      "anonymous": false,
      "inputs": [
        {
          "indexed": true,
          "internalType": "address",
          "name": "user",
          "type": "address"
        },
        {
          "indexed": true,
          "internalType": "contract Authority",
          "name": "newAuthority",
          "type": "address"
        }
      ],
      "name": "AuthorityUpdated",
      "type": "event"
    },
    {
      "anonymous": false,
      "inputs": [
        {
          "indexed": true,
          "internalType": "address",
          "name": "user",
          "type": "address"
        },
        {
          "indexed": true,
          "internalType": "address",
          "name": "newOwner",
          "type": "address"
        }
      ],
      "name": "OwnerUpdated",
      "type": "event"
    },
    {
      "anonymous": false,
      "inputs": [
        {
          "indexed": true,
          "internalType": "bytes4",
          "name": "functionSig",
          "type": "bytes4"
        },
        {
          "indexed": false,
          "internalType": "bool",
          "name": "enabled",
          "type": "bool"
        }
      ],
      "name": "PublicCapabilityUpdated",
      "type": "event"
    },
    {
      "anonymous": false,
      "inputs": [
        {
          "indexed": true,
          "internalType": "uint8",
          "name": "role",
          "type": "uint8"
        },
        {
          "indexed": true,
          "internalType": "bytes4",
          "name": "functionSig",
          "type": "bytes4"
        },
        {
          "indexed": false,
          "internalType": "bool",
          "name": "enabled",
          "type": "bool"
        }
      ],
      "name": "RoleCapabilityUpdated",
      "type": "event"
    },
    {
      "anonymous": false,
      "inputs": [
        {
          "indexed": true,
          "internalType": "address",
          "name": "target",
          "type": "address"
        },
        {
          "indexed": true,
          "internalType": "contract Authority",
          "name": "authority",
          "type": "address"
        }
      ],
      "name": "TargetCustomAuthorityUpdated",
      "type": "event"
    },
    {
      "anonymous": false,
      "inputs": [
        {
          "indexed": true,
          "internalType": "address",
          "name": "user",
          "type": "address"
        },
        {
          "indexed": true,
          "internalType": "uint8",
          "name": "role",
          "type": "uint8"
        },
        {
          "indexed": false,
          "internalType": "bool",
          "name": "enabled",
          "type": "bool"
        }
      ],
      "name": "UserRoleUpdated",
      "type": "event"
    },
    {
      "inputs": [],
      "name": "authority",
      "outputs": [
        {
          "internalType": "contract Authority",
          "name": "",
          "type": "address"
        }
      ],
      "stateMutability": "view",
      "type": "function"
    },
    {
      "inputs": [
        {
          "internalType": "address",
          "name": "user",
          "type": "address"
        },
        {
          "internalType": "address",
          "name": "target",
          "type": "address"
        },
        {
          "internalType": "bytes4",
          "name": "functionSig",
          "type": "bytes4"
        }
      ],
      "name": "canCall",
      "outputs": [
        {
          "internalType": "bool",
          "name": "",
          "type": "bool"
        }
      ],
      "stateMutability": "view",
      "type": "function"
    },
    {
      "inputs": [
        {
          "internalType": "uint8",
          "name": "role",
          "type": "uint8"
        },
        {
          "internalType": "bytes4",
          "name": "functionSig",
          "type": "bytes4"
        }
      ],
      "name": "doesRoleHaveCapability",
      "outputs": [
        {
          "internalType": "bool",
          "name": "",
          "type": "bool"
        }
      ],
      "stateMutability": "view",
      "type": "function"
    },
    {
      "inputs": [
        {
          "internalType": "address",
          "name": "user",
          "type": "address"
        },
        {
          "internalType": "uint8",
          "name": "role",
          "type": "uint8"
        }
      ],
      "name": "doesUserHaveRole",
      "outputs": [
        {
          "internalType": "bool",
          "name": "",
          "type": "bool"
        }
      ],
      "stateMutability": "view",
      "type": "function"
    },
    {
      "inputs": [
        {
          "internalType": "bytes4",
          "name": "",
          "type": "bytes4"
        }
      ],
      "name": "getRolesWithCapability",
      "outputs": [
        {
          "internalType": "bytes32",
          "name": "",
          "type": "bytes32"
        }
      ],
      "stateMutability": "view",
      "type": "function"
    },
    {
      "inputs": [
        {
          "internalType": "address",
          "name": "",
          "type": "address"
        }
      ],
      "name": "getTargetCustomAuthority",
      "outputs": [
        {
          "internalType": "contract Authority",
          "name": "",
          "type": "address"
        }
      ],
      "stateMutability": "view",
      "type": "function"
    },
    {
      "inputs": [
        {
          "internalType": "address",
          "name": "",
          "type": "address"
        }
      ],
      "name": "getUserRoles",
      "outputs": [
        {
          "internalType": "bytes32",
          "name": "",
          "type": "bytes32"
        }
      ],
      "stateMutability": "view",
      "type": "function"
    },
    {
      "inputs": [
        {
          "internalType": "bytes4",
          "name": "",
          "type": "bytes4"
        }
      ],
      "name": "isCapabilityPublic",
      "outputs": [
        {
          "internalType": "bool",
          "name": "",
          "type": "bool"
        }
      ],
      "stateMutability": "view",
      "type": "function"
    },
    {
      "inputs": [],
      "name": "owner",
      "outputs": [
        {
          "internalType": "address",
          "name": "",
          "type": "address"
        }
      ],
      "stateMutability": "view",
      "type": "function"
    },
    {
      "inputs": [
        {
          "internalType": "contract Authority",
          "name": "newAuthority",
          "type": "address"
        }
      ],
      "name": "setAuthority",
      "outputs": [],
      "stateMutability": "nonpayable",
      "type": "function"
    },
    {
      "inputs": [
        {
          "internalType": "address",
          "name": "newOwner",
          "type": "address"
        }
      ],
      "name": "setOwner",
      "outputs": [],
      "stateMutability": "nonpayable",
      "type": "function"
    },
    {
      "inputs": [
        {
          "internalType": "bytes4",
          "name": "functionSig",
          "type": "bytes4"
        },
        {
          "internalType": "bool",
          "name": "enabled",
          "type": "bool"
        }
      ],
      "name": "setPublicCapability",
      "outputs": [],
      "stateMutability": "nonpayable",
      "type": "function"
    },
    {
      "inputs": [
        {
          "internalType": "uint8",
          "name": "role",
          "type": "uint8"
        },
        {
          "internalType": "bytes4",
          "name": "functionSig",
          "type": "bytes4"
        },
        {
          "internalType": "bool",
          "name": "enabled",
          "type": "bool"
        }
      ],
      "name": "setRoleCapability",
      "outputs": [],
      "stateMutability": "nonpayable",
      "type": "function"
    },
    {
      "inputs": [
        {
          "internalType": "address",
          "name": "target",
          "type": "address"
        },
        {
          "internalType": "contract Authority",
          "name": "customAuthority",
          "type": "address"
        }
      ],
      "name": "setTargetCustomAuthority",
      "outputs": [],
      "stateMutability": "nonpayable",
      "type": "function"
    },
    {
      "inputs": [
        {
          "internalType": "address",
          "name": "user",
          "type": "address"
        },
        {
          "internalType": "uint8",
          "name": "role",
          "type": "uint8"
        },
        {
          "internalType": "bool",
          "name": "enabled",
          "type": "bool"
        }
      ],
      "name": "setUserRole",
      "outputs": [],
      "stateMutability": "nonpayable",
      "type": "function"
    }
  ],
  "bytecode": {
    "object": "0x608060405234801561001057600080fd5b506040516110d33803806110d383398101604081905261002f916100e1565b600080546001600160a01b03199081166001600160a01b0385811691821784556001805490931690851617909155604051849284929133917f8292fce18fa69edf4db7b94ea2e58241df0ae57f97e0a6c9b29067028bf92d7691a36040516001600160a01b0382169033907fa3396fd7f6e0a21b50e5089d2da70d5ac0a3bbbd1f617a93f134b7638998019890600090a35050505061011b565b6001600160a01b03811681146100de57600080fd5b50565b600080604083850312156100f457600080fd5b82516100ff816100c9565b6020840151909250610110816100c9565b809150509250929050565b610fa98061012a6000396000f3fe608060405234801561001057600080fd5b50600436106100f55760003560e01c80637a9e5e4b11610097578063c53a398511610066578063c53a39851461024c578063e688747b14610282578063ea7ca276146102d0578063ed0d0efb1461031457600080fd5b80637a9e5e4b146101c15780638da5cb5b146101d4578063b700961314610219578063bf7e214f1461022c57600080fd5b806313af4035116100d357806313af4035146101755780634b5159da1461018857806367aff4841461019b578063728b952b146101ae57600080fd5b806306a36aee146100fa5780630bade8a41461012d5780630ea9b75b14610160575b600080fd5b61011a610108366004610d73565b60036020526000908152604090205481565b6040519081526020015b60405180910390f35b61015061013b366004610dc5565b60046020526000908152604090205460ff1681565b6040519015158152602001610124565b61017361016e366004610dff565b610334565b005b610173610183366004610d73565b6104b8565b610173610196366004610e46565b6105bc565b6101736101a9366004610e7d565b6106e6565b6101736101bc366004610eab565b610837565b6101736101cf366004610d73565b610947565b6000546101f49073ffffffffffffffffffffffffffffffffffffffff1681565b60405173ffffffffffffffffffffffffffffffffffffffff9091168152602001610124565b610150610227366004610ed9565b610aa4565b6001546101f49073ffffffffffffffffffffffffffffffffffffffff1681565b6101f461025a366004610d73565b60026020526000908152604090205473ffffffffffffffffffffffffffffffffffffffff1681565b610150610290366004610f20565b7fffffffff000000000000000000000000000000000000000000000000000000001660009081526005602052604090205460ff919091161c600116151590565b6101506102de366004610f53565b73ffffffffffffffffffffffffffffffffffffffff91909116600090815260036020526040902054600160ff9092161c16151590565b61011a610322366004610dc5565b60056020526000908152604090205481565b610362336000357fffffffff0000000000000000000000000000000000000000000000000000000016610c3d565b6103cd576040517f08c379a000000000000000000000000000000000000000000000000000000000815260206004820152600c60248201527f554e415554484f52495a4544000000000000000000000000000000000000000060448201526064015b60405180910390fd5b8015610415577fffffffff00000000000000000000000000000000000000000000000000000000821660009081526005602052604090208054600160ff86161b179055610454565b7fffffffff00000000000000000000000000000000000000000000000000000000821660009081526005602052604090208054600160ff86161b191690555b817bffffffffffffffffffffffffffffffffffffffffffffffffffffffff19168360ff167fbfe16b2c35ce23dfd1ab0e7b5d086a10060c9b52d1574e1680c881b3b3a2b151836040516104ab911515815260200190565b60405180910390a3505050565b6104e6336000357fffffffff0000000000000000000000000000000000000000000000000000000016610c3d565b61054c576040517f08c379a000000000000000000000000000000000000000000000000000000000815260206004820152600c60248201527f554e415554484f52495a4544000000000000000000000000000000000000000060448201526064016103c4565b600080547fffffffffffffffffffffffff00000000000000000000000000000000000000001673ffffffffffffffffffffffffffffffffffffffff83169081178255604051909133917f8292fce18fa69edf4db7b94ea2e58241df0ae57f97e0a6c9b29067028bf92d769190a350565b6105ea336000357fffffffff0000000000000000000000000000000000000000000000000000000016610c3d565b610650576040517f08c379a000000000000000000000000000000000000000000000000000000000815260206004820152600c60248201527f554e415554484f52495a4544000000000000000000000000000000000000000060448201526064016103c4565b7fffffffff00000000000000000000000000000000000000000000000000000000821660008181526004602090815260409182902080547fffffffffffffffffffffffffffffffffffffffffffffffffffffffffffffff001685151590811790915591519182527f36d28126bef21a4f3765d7fcb7c45cead463ae4c41094ef3b771ede598544103910160405180910390a25050565b610714336000357fffffffff0000000000000000000000000000000000000000000000000000000016610c3d565b61077a576040517f08c379a000000000000000000000000000000000000000000000000000000000815260206004820152600c60248201527f554e415554484f52495a4544000000000000000000000000000000000000000060448201526064016103c4565b80156107b65773ffffffffffffffffffffffffffffffffffffffff831660009081526003602052604090208054600160ff85161b1790556107e9565b73ffffffffffffffffffffffffffffffffffffffff831660009081526003602052604090208054600160ff85161b191690555b8160ff168373ffffffffffffffffffffffffffffffffffffffff167f4c9bdd0c8e073eb5eda2250b18d8e5121ff27b62064fbeeeed4869bb99bc5bf2836040516104ab911515815260200190565b610865336000357fffffffff0000000000000000000000000000000000000000000000000000000016610c3d565b6108cb576040517f08c379a000000000000000000000000000000000000000000000000000000000815260206004820152600c60248201527f554e415554484f52495a4544000000000000000000000000000000000000000060448201526064016103c4565b73ffffffffffffffffffffffffffffffffffffffff82811660008181526002602052604080822080547fffffffffffffffffffffffff0000000000000000000000000000000000000000169486169485179055517fa4908e11a5f895b13d51526c331ac93cdd30e59772361c5d07874eb36bff20659190a35050565b60005473ffffffffffffffffffffffffffffffffffffffff16331480610a2a57506001546040517fb70096130000000000000000000000000000000000000000000000000000000081523360048201523060248201526000357fffffffff0000000000000000000000000000000000000000000000000000000016604482015273ffffffffffffffffffffffffffffffffffffffff9091169063b700961390606401602060405180830381865afa158015610a06573d6000803e3d6000fd5b505050506040513d601f19601f82011682018060405250810190610a2a9190610f7f565b610a3357600080fd5b600180547fffffffffffffffffffffffff00000000000000000000000000000000000000001673ffffffffffffffffffffffffffffffffffffffff831690811790915560405133907fa3396fd7f6e0a21b50e5089d2da70d5ac0a3bbbd1f617a93f134b7638998019890600090a350565b73ffffffffffffffffffffffffffffffffffffffff8083166000908152600260205260408120549091168015610b9c576040517fb700961300000000000000000000000000000000000000000000000000000000815273ffffffffffffffffffffffffffffffffffffffff868116600483015285811660248301527fffffffff000000000000000000000000000000000000000000000000000000008516604483015282169063b700961390606401602060405180830381865afa158015610b70573d6000803e3d6000fd5b505050506040513d601f19601f82011682018060405250810190610b949190610f7f565b915050610c36565b7fffffffff00000000000000000000000000000000000000000000000000000000831660009081526004602052604090205460ff1680610c3257507fffffffff00000000000000000000000000000000000000000000000000000000831660009081526005602090815260408083205473ffffffffffffffffffffffffffffffffffffffff891684526003909252909120541615155b9150505b9392505050565b60015460009073ffffffffffffffffffffffffffffffffffffffff168015801590610d2157506040517fb700961300000000000000000000000000000000000000000000000000000000815273ffffffffffffffffffffffffffffffffffffffff85811660048301523060248301527fffffffff000000000000000000000000000000000000000000000000000000008516604483015282169063b700961390606401602060405180830381865afa158015610cfd573d6000803e3d6000fd5b505050506040513d601f19601f82011682018060405250810190610d219190610f7f565b80610d46575060005473ffffffffffffffffffffffffffffffffffffffff8581169116145b949350505050565b73ffffffffffffffffffffffffffffffffffffffff81168114610d7057600080fd5b50565b600060208284031215610d8557600080fd5b8135610c3681610d4e565b80357fffffffff0000000000000000000000000000000000000000000000000000000081168114610dc057600080fd5b919050565b600060208284031215610dd757600080fd5b610c3682610d90565b803560ff81168114610dc057600080fd5b8015158114610d7057600080fd5b600080600060608486031215610e1457600080fd5b610e1d84610de0565b9250610e2b60208501610d90565b91506040840135610e3b81610df1565b809150509250925092565b60008060408385031215610e5957600080fd5b610e6283610d90565b91506020830135610e7281610df1565b809150509250929050565b600080600060608486031215610e9257600080fd5b8335610e9d81610d4e565b9250610e2b60208501610de0565b60008060408385031215610ebe57600080fd5b8235610ec981610d4e565b91506020830135610e7281610d4e565b600080600060608486031215610eee57600080fd5b8335610ef981610d4e565b92506020840135610f0981610d4e565b9150610f1760408501610d90565b90509250925092565b60008060408385031215610f3357600080fd5b610f3c83610de0565b9150610f4a60208401610d90565b90509250929050565b60008060408385031215610f6657600080fd5b8235610f7181610d4e565b9150610f4a60208401610de0565b600060208284031215610f9157600080fd5b8151610c3681610df156fea164736f6c634300080f000a",
    "linkReferences": {}
  },
  "methodIdentifiers": {
    "authority()": "bf7e214f",
    "canCall(address,address,bytes4)": "b7009613",
    "doesRoleHaveCapability(uint8,bytes4)": "e688747b",
    "doesUserHaveRole(address,uint8)": "ea7ca276",
    "getRolesWithCapability(bytes4)": "ed0d0efb",
    "getTargetCustomAuthority(address)": "c53a3985",
    "getUserRoles(address)": "06a36aee",
    "isCapabilityPublic(bytes4)": "0bade8a4",
    "owner()": "8da5cb5b",
    "setAuthority(address)": "7a9e5e4b",
    "setOwner(address)": "13af4035",
    "setPublicCapability(bytes4,bool)": "4b5159da",
    "setRoleCapability(uint8,bytes4,bool)": "0ea9b75b",
    "setTargetCustomAuthority(address,address)": "728b952b",
    "setUserRole(address,uint8,bool)": "67aff484"
  },
  "id": 3
}