{
  "abi": [
    {
      "anonymous": false,
      "inputs": [
        {
          "indexed": true,
          "internalType": "address",
          "name": "owner",
          "type": "address"
        },
        {
          "indexed": true,
          "internalType": "address",
          "name": "operator",
          "type": "address"
        },
        {
          "indexed": false,
          "internalType": "bool",
          "name": "approved",
          "type": "bool"
        }
      ],
      "name": "ApprovalForAll",
      "type": "event"
    },
    {
      "anonymous": false,
      "inputs": [
        {
          "indexed": true,
          "internalType": "address",
          "name": "operator",
          "type": "address"
        },
        {
          "indexed": true,
          "internalType": "address",
          "name": "from",
          "type": "address"
        },
        {
          "indexed": true,
          "internalType": "address",
          "name": "to",
          "type": "address"
        },
        {
          "indexed": false,
          "internalType": "uint256[]",
          "name": "ids",
          "type": "uint256[]"
        },
        {
          "indexed": false,
          "internalType": "uint256[]",
          "name": "amounts",
          "type": "uint256[]"
        }
      ],
      "name": "TransferBatch",
      "type": "event"
    },
    {
      "anonymous": false,
      "inputs": [
        {
          "indexed": true,
          "internalType": "address",
          "name": "operator",
          "type": "address"
        },
        {
          "indexed": true,
          "internalType": "address",
          "name": "from",
          "type": "address"
        },
        {
          "indexed": true,
          "internalType": "address",
          "name": "to",
          "type": "address"
        },
        {
          "indexed": false,
          "internalType": "uint256",
          "name": "id",
          "type": "uint256"
        },
        {
          "indexed": false,
          "internalType": "uint256",
          "name": "amount",
          "type": "uint256"
        }
      ],
      "name": "TransferSingle",
      "type": "event"
    },
    {
      "anonymous": false,
      "inputs": [
        {
          "indexed": false,
          "internalType": "string",
          "name": "value",
          "type": "string"
        },
        {
          "indexed": true,
          "internalType": "uint256",
          "name": "id",
          "type": "uint256"
        }
      ],
      "name": "URI",
      "type": "event"
    },
    {
      "inputs": [
        {
          "internalType": "address",
          "name": "",
          "type": "address"
        },
        {
          "internalType": "uint256",
          "name": "",
          "type": "uint256"
        }
      ],
      "name": "balanceOf",
      "outputs": [
        {
          "internalType": "uint256",
          "name": "",
          "type": "uint256"
        }
      ],
      "stateMutability": "view",
      "type": "function"
    },
    {
      "inputs": [
        {
          "internalType": "address[]",
          "name": "owners",
          "type": "address[]"
        },
        {
          "internalType": "uint256[]",
          "name": "ids",
          "type": "uint256[]"
        }
      ],
      "name": "balanceOfBatch",
      "outputs": [
        {
          "internalType": "uint256[]",
          "name": "balances",
          "type": "uint256[]"
        }
      ],
      "stateMutability": "view",
      "type": "function"
    },
    {
      "inputs": [
        {
          "internalType": "address",
          "name": "from",
          "type": "address"
        },
        {
          "internalType": "uint256[]",
          "name": "ids",
          "type": "uint256[]"
        },
        {
          "internalType": "uint256[]",
          "name": "amounts",
          "type": "uint256[]"
        }
      ],
      "name": "batchBurn",
      "outputs": [],
      "stateMutability": "nonpayable",
      "type": "function"
    },
    {
      "inputs": [
        {
          "internalType": "address",
          "name": "to",
          "type": "address"
        },
        {
          "internalType": "uint256[]",
          "name": "ids",
          "type": "uint256[]"
        },
        {
          "internalType": "uint256[]",
          "name": "amounts",
          "type": "uint256[]"
        },
        {
          "internalType": "bytes",
          "name": "data",
          "type": "bytes"
        }
      ],
      "name": "batchMint",
      "outputs": [],
      "stateMutability": "nonpayable",
      "type": "function"
    },
    {
      "inputs": [
        {
          "internalType": "address",
          "name": "from",
          "type": "address"
        },
        {
          "internalType": "uint256",
          "name": "id",
          "type": "uint256"
        },
        {
          "internalType": "uint256",
          "name": "amount",
          "type": "uint256"
        }
      ],
      "name": "burn",
      "outputs": [],
      "stateMutability": "nonpayable",
      "type": "function"
    },
    {
      "inputs": [
        {
          "internalType": "address",
          "name": "",
          "type": "address"
        },
        {
          "internalType": "address",
          "name": "",
          "type": "address"
        }
      ],
      "name": "isApprovedForAll",
      "outputs": [
        {
          "internalType": "bool",
          "name": "",
          "type": "bool"
        }
      ],
      "stateMutability": "view",
      "type": "function"
    },
    {
      "inputs": [
        {
          "internalType": "address",
          "name": "to",
          "type": "address"
        },
        {
          "internalType": "uint256",
          "name": "id",
          "type": "uint256"
        },
        {
          "internalType": "uint256",
          "name": "amount",
          "type": "uint256"
        },
        {
          "internalType": "bytes",
          "name": "data",
          "type": "bytes"
        }
      ],
      "name": "mint",
      "outputs": [],
      "stateMutability": "nonpayable",
      "type": "function"
    },
    {
      "inputs": [
        {
          "internalType": "address",
          "name": "from",
          "type": "address"
        },
        {
          "internalType": "address",
          "name": "to",
          "type": "address"
        },
        {
          "internalType": "uint256[]",
          "name": "ids",
          "type": "uint256[]"
        },
        {
          "internalType": "uint256[]",
          "name": "amounts",
          "type": "uint256[]"
        },
        {
          "internalType": "bytes",
          "name": "data",
          "type": "bytes"
        }
      ],
      "name": "safeBatchTransferFrom",
      "outputs": [],
      "stateMutability": "nonpayable",
      "type": "function"
    },
    {
      "inputs": [
        {
          "internalType": "address",
          "name": "from",
          "type": "address"
        },
        {
          "internalType": "address",
          "name": "to",
          "type": "address"
        },
        {
          "internalType": "uint256",
          "name": "id",
          "type": "uint256"
        },
        {
          "internalType": "uint256",
          "name": "amount",
          "type": "uint256"
        },
        {
          "internalType": "bytes",
          "name": "data",
          "type": "bytes"
        }
      ],
      "name": "safeTransferFrom",
      "outputs": [],
      "stateMutability": "nonpayable",
      "type": "function"
    },
    {
      "inputs": [
        {
          "internalType": "address",
          "name": "operator",
          "type": "address"
        },
        {
          "internalType": "bool",
          "name": "approved",
          "type": "bool"
        }
      ],
      "name": "setApprovalForAll",
      "outputs": [],
      "stateMutability": "nonpayable",
      "type": "function"
    },
    {
      "inputs": [
        {
          "internalType": "bytes4",
          "name": "interfaceId",
          "type": "bytes4"
        }
      ],
      "name": "supportsInterface",
      "outputs": [
        {
          "internalType": "bool",
          "name": "",
          "type": "bool"
        }
      ],
      "stateMutability": "view",
      "type": "function"
    },
    {
      "inputs": [
        {
          "internalType": "uint256",
          "name": "",
          "type": "uint256"
        }
      ],
      "name": "uri",
      "outputs": [
        {
          "internalType": "string",
          "name": "",
          "type": "string"
        }
      ],
      "stateMutability": "pure",
      "type": "function"
    }
  ],
  "bytecode": {
    "object": "0x608060405234801561001057600080fd5b50611dfc806100206000396000f3fe608060405234801561001057600080fd5b50600436106100d35760003560e01c8063a22cb46511610081578063f242432a1161005b578063f242432a146101f3578063f5298aca14610206578063f6eb127a1461021957600080fd5b8063a22cb4651461019f578063b48ab8b6146101b2578063e985e9c5146101c557600080fd5b80632eb2c2d6116100b25780632eb2c2d6146101575780634e1273f41461016c578063731133e91461018c57600080fd5b8062fdd58e146100d857806301ffc9a7146101135780630e89341c14610136575b600080fd5b6101006100e63660046113b5565b600060208181529281526040808220909352908152205481565b6040519081526020015b60405180910390f35b610126610121366004611410565b61022c565b604051901515815260200161010a565b61014a610144366004611434565b50606090565b60405161010a91906114b8565b61016a610165366004611559565b610311565b005b61017f61017a366004611614565b610707565b60405161010a91906116bb565b61016a61019a3660046117da565b61087e565b61016a6101ad36600461183b565b610890565b61016a6101c03660046118f7565b610927565b6101266101d3366004611984565b600160209081526000928352604080842090915290825290205460ff1681565b61016a6102013660046119b7565b610933565b61016a610214366004611a2f565b610c39565b61016a610227366004611a62565b610c49565b60007f01ffc9a7000000000000000000000000000000000000000000000000000000007fffffffff00000000000000000000000000000000000000000000000000000000831614806102bf57507fd9b67a26000000000000000000000000000000000000000000000000000000007fffffffff000000000000000000000000000000000000000000000000000000008316145b8061030b57507f0e89341c000000000000000000000000000000000000000000000000000000007fffffffff000000000000000000000000000000000000000000000000000000008316145b92915050565b84831461037f576040517f08c379a000000000000000000000000000000000000000000000000000000000815260206004820152600f60248201527f4c454e4754485f4d49534d41544348000000000000000000000000000000000060448201526064015b60405180910390fd5b3373ffffffffffffffffffffffffffffffffffffffff891614806103d3575073ffffffffffffffffffffffffffffffffffffffff8816600090815260016020908152604080832033845290915290205460ff165b610439576040517f08c379a000000000000000000000000000000000000000000000000000000000815260206004820152600e60248201527f4e4f545f415554484f52495a45440000000000000000000000000000000000006044820152606401610376565b60008060005b8781101561050e5788888281811061045957610459611ad6565b90506020020135925086868281811061047457610474611ad6565b73ffffffffffffffffffffffffffffffffffffffff8e16600090815260208181526040808320898452825282208054939091029490940135955085939250906104be908490611b34565b909155505073ffffffffffffffffffffffffffffffffffffffff8a1660009081526020818152604080832086845290915281208054849290610501908490611b4b565b909155505060010161043f565b508873ffffffffffffffffffffffffffffffffffffffff168a73ffffffffffffffffffffffffffffffffffffffff163373ffffffffffffffffffffffffffffffffffffffff167f4a39dc06d4c0dbc64b70af90fd698a233a518aa5d07e595d983b8c0526c8f7fb8b8b8b8b6040516105899493929190611bb2565b60405180910390a473ffffffffffffffffffffffffffffffffffffffff89163b1561067b576040517fbc197c81000000000000000000000000000000000000000000000000000000008082529073ffffffffffffffffffffffffffffffffffffffff8b169063bc197c81906106109033908f908e908e908e908e908e908e90600401611c22565b6020604051808303816000875af115801561062f573d6000803e3d6000fd5b505050506040513d601f19601f820116820180604052508101906106539190611c93565b7fffffffff000000000000000000000000000000000000000000000000000000001614610695565b73ffffffffffffffffffffffffffffffffffffffff891615155b6106fb576040517f08c379a000000000000000000000000000000000000000000000000000000000815260206004820152601060248201527f554e534146455f524543495049454e54000000000000000000000000000000006044820152606401610376565b50505050505050505050565b6060838214610772576040517f08c379a000000000000000000000000000000000000000000000000000000000815260206004820152600f60248201527f4c454e4754485f4d49534d4154434800000000000000000000000000000000006044820152606401610376565b8367ffffffffffffffff81111561078b5761078b6116ce565b6040519080825280602002602001820160405280156107b4578160200160208202803683370190505b50905060005b84811015610875576000808787848181106107d7576107d7611ad6565b90506020020160208101906107ec9190611cb0565b73ffffffffffffffffffffffffffffffffffffffff1673ffffffffffffffffffffffffffffffffffffffff168152602001908152602001600020600085858481811061083a5761083a611ad6565b9050602002013581526020019081526020016000205482828151811061086257610862611ad6565b60209081029190910101526001016107ba565b50949350505050565b61088a84848484610c54565b50505050565b33600081815260016020908152604080832073ffffffffffffffffffffffffffffffffffffffff87168085529083529281902080547fffffffffffffffffffffffffffffffffffffffffffffffffffffffffffffff001686151590811790915590519081529192917f17307eab39ab6107e8899845ad3d59bd9653f200f220920489ca2b5937696c31910160405180910390a35050565b61088a84848484610e52565b3373ffffffffffffffffffffffffffffffffffffffff87161480610987575073ffffffffffffffffffffffffffffffffffffffff8616600090815260016020908152604080832033845290915290205460ff165b6109ed576040517f08c379a000000000000000000000000000000000000000000000000000000000815260206004820152600e60248201527f4e4f545f415554484f52495a45440000000000000000000000000000000000006044820152606401610376565b73ffffffffffffffffffffffffffffffffffffffff861660009081526020818152604080832087845290915281208054859290610a2b908490611b34565b909155505073ffffffffffffffffffffffffffffffffffffffff851660009081526020818152604080832087845290915281208054859290610a6e908490611b4b565b9091555050604080518581526020810185905273ffffffffffffffffffffffffffffffffffffffff808816929089169133917fc3d58168c5ae7397731d063d5bbf3d657854427343f4c083240f7aacaa2d0f62910160405180910390a473ffffffffffffffffffffffffffffffffffffffff85163b15610bb1576040517ff23a6e61000000000000000000000000000000000000000000000000000000008082529073ffffffffffffffffffffffffffffffffffffffff87169063f23a6e6190610b469033908b908a908a908a908a90600401611ccb565b6020604051808303816000875af1158015610b65573d6000803e3d6000fd5b505050506040513d601f19601f82011682018060405250810190610b899190611c93565b7fffffffff000000000000000000000000000000000000000000000000000000001614610bcb565b73ffffffffffffffffffffffffffffffffffffffff851615155b610c31576040517f08c379a000000000000000000000000000000000000000000000000000000000815260206004820152601060248201527f554e534146455f524543495049454e54000000000000000000000000000000006044820152606401610376565b505050505050565b610c44838383611153565b505050565b610c448383836111f1565b73ffffffffffffffffffffffffffffffffffffffff841660009081526020818152604080832086845290915281208054849290610c92908490611b4b565b9091555050604080518481526020810184905273ffffffffffffffffffffffffffffffffffffffff86169160009133917fc3d58168c5ae7397731d063d5bbf3d657854427343f4c083240f7aacaa2d0f62910160405180910390a473ffffffffffffffffffffffffffffffffffffffff84163b15610dd2576040517ff23a6e61000000000000000000000000000000000000000000000000000000008082529073ffffffffffffffffffffffffffffffffffffffff86169063f23a6e6190610d67903390600090899089908990600401611d1d565b6020604051808303816000875af1158015610d86573d6000803e3d6000fd5b505050506040513d601f19601f82011682018060405250810190610daa9190611c93565b7fffffffff000000000000000000000000000000000000000000000000000000001614610dec565b73ffffffffffffffffffffffffffffffffffffffff841615155b61088a576040517f08c379a000000000000000000000000000000000000000000000000000000000815260206004820152601060248201527f554e534146455f524543495049454e54000000000000000000000000000000006044820152606401610376565b825182518114610ebe576040517f08c379a000000000000000000000000000000000000000000000000000000000815260206004820152600f60248201527f4c454e4754485f4d49534d4154434800000000000000000000000000000000006044820152606401610376565b60005b81811015610f6757838181518110610edb57610edb611ad6565b60200260200101516000808873ffffffffffffffffffffffffffffffffffffffff1673ffffffffffffffffffffffffffffffffffffffff1681526020019081526020016000206000878481518110610f3557610f35611ad6565b602002602001015181526020019081526020016000206000828254610f5a9190611b4b565b9091555050600101610ec1565b508473ffffffffffffffffffffffffffffffffffffffff16600073ffffffffffffffffffffffffffffffffffffffff163373ffffffffffffffffffffffffffffffffffffffff167f4a39dc06d4c0dbc64b70af90fd698a233a518aa5d07e595d983b8c0526c8f7fb8787604051610fdf929190611d62565b60405180910390a473ffffffffffffffffffffffffffffffffffffffff85163b156110cc576040517fbc197c81000000000000000000000000000000000000000000000000000000008082529073ffffffffffffffffffffffffffffffffffffffff87169063bc197c81906110619033906000908a908a908a90600401611d90565b6020604051808303816000875af1158015611080573d6000803e3d6000fd5b505050506040513d601f19601f820116820180604052508101906110a49190611c93565b7fffffffff0000000000000000000000000000000000000000000000000000000016146110e6565b73ffffffffffffffffffffffffffffffffffffffff851615155b61114c576040517f08c379a000000000000000000000000000000000000000000000000000000000815260206004820152601060248201527f554e534146455f524543495049454e54000000000000000000000000000000006044820152606401610376565b5050505050565b73ffffffffffffffffffffffffffffffffffffffff831660009081526020818152604080832085845290915281208054839290611191908490611b34565b9091555050604080518381526020810183905260009173ffffffffffffffffffffffffffffffffffffffff86169133917fc3d58168c5ae7397731d063d5bbf3d657854427343f4c083240f7aacaa2d0f62910160405180910390a4505050565b81518151811461125d576040517f08c379a000000000000000000000000000000000000000000000000000000000815260206004820152600f60248201527f4c454e4754485f4d49534d4154434800000000000000000000000000000000006044820152606401610376565b60005b818110156113065782818151811061127a5761127a611ad6565b60200260200101516000808773ffffffffffffffffffffffffffffffffffffffff1673ffffffffffffffffffffffffffffffffffffffff16815260200190815260200160002060008684815181106112d4576112d4611ad6565b6020026020010151815260200190815260200160002060008282546112f99190611b34565b9091555050600101611260565b50600073ffffffffffffffffffffffffffffffffffffffff168473ffffffffffffffffffffffffffffffffffffffff163373ffffffffffffffffffffffffffffffffffffffff167f4a39dc06d4c0dbc64b70af90fd698a233a518aa5d07e595d983b8c0526c8f7fb868660405161137e929190611d62565b60405180910390a450505050565b803573ffffffffffffffffffffffffffffffffffffffff811681146113b057600080fd5b919050565b600080604083850312156113c857600080fd5b6113d18361138c565b946020939093013593505050565b7fffffffff000000000000000000000000000000000000000000000000000000008116811461140d57600080fd5b50565b60006020828403121561142257600080fd5b813561142d816113df565b9392505050565b60006020828403121561144657600080fd5b5035919050565b6000815180845260005b8181101561147357602081850181015186830182015201611457565b81811115611485576000602083870101525b50601f017fffffffffffffffffffffffffffffffffffffffffffffffffffffffffffffffe0169290920160200192915050565b60208152600061142d602083018461144d565b60008083601f8401126114dd57600080fd5b50813567ffffffffffffffff8111156114f557600080fd5b6020830191508360208260051b850101111561151057600080fd5b9250929050565b60008083601f84011261152957600080fd5b50813567ffffffffffffffff81111561154157600080fd5b60208301915083602082850101111561151057600080fd5b60008060008060008060008060a0898b03121561157557600080fd5b61157e8961138c565b975061158c60208a0161138c565b9650604089013567ffffffffffffffff808211156115a957600080fd5b6115b58c838d016114cb565b909850965060608b01359150808211156115ce57600080fd5b6115da8c838d016114cb565b909650945060808b01359150808211156115f357600080fd5b506116008b828c01611517565b999c989b5096995094979396929594505050565b6000806000806040858703121561162a57600080fd5b843567ffffffffffffffff8082111561164257600080fd5b61164e888389016114cb565b9096509450602087013591508082111561166757600080fd5b50611674878288016114cb565b95989497509550505050565b600081518084526020808501945080840160005b838110156116b057815187529582019590820190600101611694565b509495945050505050565b60208152600061142d6020830184611680565b7f4e487b7100000000000000000000000000000000000000000000000000000000600052604160045260246000fd5b604051601f82017fffffffffffffffffffffffffffffffffffffffffffffffffffffffffffffffe016810167ffffffffffffffff81118282101715611744576117446116ce565b604052919050565b600082601f83011261175d57600080fd5b813567ffffffffffffffff811115611777576117776116ce565b6117a860207fffffffffffffffffffffffffffffffffffffffffffffffffffffffffffffffe0601f840116016116fd565b8181528460208386010111156117bd57600080fd5b816020850160208301376000918101602001919091529392505050565b600080600080608085870312156117f057600080fd5b6117f98561138c565b93506020850135925060408501359150606085013567ffffffffffffffff81111561182357600080fd5b61182f8782880161174c565b91505092959194509250565b6000806040838503121561184e57600080fd5b6118578361138c565b91506020830135801515811461186c57600080fd5b809150509250929050565b600082601f83011261188857600080fd5b8135602067ffffffffffffffff8211156118a4576118a46116ce565b8160051b6118b38282016116fd565b92835284810182019282810190878511156118cd57600080fd5b83870192505b848310156118ec578235825291830191908301906118d3565b979650505050505050565b6000806000806080858703121561190d57600080fd5b6119168561138c565b9350602085013567ffffffffffffffff8082111561193357600080fd5b61193f88838901611877565b9450604087013591508082111561195557600080fd5b61196188838901611877565b9350606087013591508082111561197757600080fd5b5061182f8782880161174c565b6000806040838503121561199757600080fd5b6119a08361138c565b91506119ae6020840161138c565b90509250929050565b60008060008060008060a087890312156119d057600080fd5b6119d98761138c565b95506119e76020880161138c565b94506040870135935060608701359250608087013567ffffffffffffffff811115611a1157600080fd5b611a1d89828a01611517565b979a9699509497509295939492505050565b600080600060608486031215611a4457600080fd5b611a4d8461138c565b95602085013595506040909401359392505050565b600080600060608486031215611a7757600080fd5b611a808461138c565b9250602084013567ffffffffffffffff80821115611a9d57600080fd5b611aa987838801611877565b93506040860135915080821115611abf57600080fd5b50611acc86828701611877565b9150509250925092565b7f4e487b7100000000000000000000000000000000000000000000000000000000600052603260045260246000fd5b7f4e487b7100000000000000000000000000000000000000000000000000000000600052601160045260246000fd5b600082821015611b4657611b46611b05565b500390565b60008219821115611b5e57611b5e611b05565b500190565b81835260007f07ffffffffffffffffffffffffffffffffffffffffffffffffffffffffffffff831115611b9557600080fd5b8260051b8083602087013760009401602001938452509192915050565b604081526000611bc6604083018688611b63565b82810360208401526118ec818587611b63565b8183528181602085013750600060208284010152600060207fffffffffffffffffffffffffffffffffffffffffffffffffffffffffffffffe0601f840116840101905092915050565b600073ffffffffffffffffffffffffffffffffffffffff808b168352808a1660208401525060a06040830152611c5c60a08301888a611b63565b8281036060840152611c6f818789611b63565b90508281036080840152611c84818587611bd9565b9b9a5050505050505050505050565b600060208284031215611ca557600080fd5b815161142d816113df565b600060208284031215611cc257600080fd5b61142d8261138c565b600073ffffffffffffffffffffffffffffffffffffffff808916835280881660208401525085604083015284606083015260a06080830152611d1160a083018486611bd9565b98975050505050505050565b600073ffffffffffffffffffffffffffffffffffffffff808816835280871660208401525084604083015283606083015260a060808301526118ec60a083018461144d565b604081526000611d756040830185611680565b8281036020840152611d878185611680565b95945050505050565b600073ffffffffffffffffffffffffffffffffffffffff808816835280871660208401525060a06040830152611dc960a0830186611680565b8281036060840152611ddb8186611680565b90508281036080840152611d11818561144d56fea164736f6c634300080f000a",
    "linkReferences": {}
  },
  "methodIdentifiers": {
    "balanceOf(address,uint256)": "00fdd58e",
    "balanceOfBatch(address[],uint256[])": "4e1273f4",
    "batchBurn(address,uint256[],uint256[])": "f6eb127a",
    "batchMint(address,uint256[],uint256[],bytes)": "b48ab8b6",
    "burn(address,uint256,uint256)": "f5298aca",
    "isApprovedForAll(address,address)": "e985e9c5",
    "mint(address,uint256,uint256,bytes)": "731133e9",
    "safeBatchTransferFrom(address,address,uint256[],uint256[],bytes)": "2eb2c2d6",
    "safeTransferFrom(address,address,uint256,uint256,bytes)": "f242432a",
    "setApprovalForAll(address,bool)": "a22cb465",
    "supportsInterface(bytes4)": "01ffc9a7",
    "uri(uint256)": "0e89341c"
  },
  "id": 28
}