{
  "abi": [
    {
      "inputs": [
        {
          "internalType": "bool",
          "name": "_allowCalls",
          "type": "bool"
        }
      ],
      "stateMutability": "nonpayable",
      "type": "constructor"
    },
    {
      "inputs": [
        {
          "internalType": "address",
          "name": "",
          "type": "address"
        },
        {
          "internalType": "address",
          "name": "",
          "type": "address"
        },
        {
          "internalType": "bytes4",
          "name": "",
          "type": "bytes4"
        }
      ],
      "name": "canCall",
      "outputs": [
        {
          "internalType": "bool",
          "name": "",
          "type": "bool"
        }
      ],
      "stateMutability": "view",
      "type": "function"
    }
  ],
  "bytecode": {
    "object": "0x60a060405234801561001057600080fd5b5060405161019838038061019883398101604081905261002f91610039565b1515608052610062565b60006020828403121561004b57600080fd5b8151801515811461005b57600080fd5b9392505050565b60805161011c61007c60003960006040015261011c6000f3fe608060405234801561001057600080fd5b506004361061002b5760003560e01c8063b700961314610030575b600080fd5b61006661003e3660046100a3565b7f00000000000000000000000000000000000000000000000000000000000000009392505050565b604051901515815260200160405180910390f35b803573ffffffffffffffffffffffffffffffffffffffff8116811461009e57600080fd5b919050565b6000806000606084860312156100b857600080fd5b6100c18461007a565b92506100cf6020850161007a565b915060408401357fffffffff000000000000000000000000000000000000000000000000000000008116811461010457600080fd5b80915050925092509256fea164736f6c634300080f000a",
    "linkReferences": {}
  },
  "methodIdentifiers": {
    "canCall(address,address,bytes4)": "b7009613"
  },
  "id": 27
}