{
  "abi": [
    {
      "inputs": [],
      "name": "targetContracts",
      "outputs": [
        {
          "internalType": "address[]",
          "name": "",
          "type": "address[]"
        }
      ],
      "stateMutability": "view",
      "type": "function"
    }
  ],
  "bytecode": {
    "object": "0x608060405234801561001057600080fd5b50610192806100206000396000f3fe608060405234801561001057600080fd5b506004361061002b5760003560e01c80633f7286f414610030575b600080fd5b61003861004e565b604051610045919061012b565b60405180910390f35b6000546060906100be576040517f08c379a000000000000000000000000000000000000000000000000000000000815260206004820152601360248201527f4e4f5f5441524745545f434f4e54524143545300000000000000000000000000604482015260640160405180910390fd5b600080548060200260200160405190810160405280929190818152602001828054801561012157602002820191906000526020600020905b815473ffffffffffffffffffffffffffffffffffffffff1681526001909101906020018083116100f6575b5050505050905090565b6020808252825182820181905260009190848201906040850190845b8181101561017957835173ffffffffffffffffffffffffffffffffffffffff1683529284019291840191600101610147565b5090969550505050505056fea164736f6c634300080f000a",
    "linkReferences": {}
  },
  "methodIdentifiers": {
    "targetContracts()": "3f7286f4"
  },
  "id": 23
}